{
  "contractName": "helpToken",
  "abi": [
    {
      "inputs": [],
      "stateMutability": "nonpayable",
      "type": "constructor"
    },
    {
      "anonymous": false,
      "inputs": [
        {
          "indexed": false,
          "internalType": "address",
          "name": "_from",
          "type": "address"
        },
        {
          "indexed": false,
          "internalType": "address",
          "name": "_to",
          "type": "address"
        },
        {
          "indexed": false,
          "internalType": "uint256",
          "name": "_value",
          "type": "uint256"
        }
      ],
      "name": "Transfer",
      "type": "event"
    },
    {
      "inputs": [
        {
          "internalType": "address",
          "name": "",
          "type": "address"
        }
      ],
      "name": "balances",
      "outputs": [
        {
          "internalType": "uint256",
          "name": "",
          "type": "uint256"
        }
      ],
      "stateMutability": "view",
      "type": "function",
      "constant": true
    },
    {
      "inputs": [],
      "name": "decimals",
      "outputs": [
        {
          "internalType": "uint8",
          "name": "",
          "type": "uint8"
        }
      ],
      "stateMutability": "view",
      "type": "function",
      "constant": true
    },
    {
      "inputs": [],
      "name": "name",
      "outputs": [
        {
          "internalType": "string",
          "name": "",
          "type": "string"
        }
      ],
      "stateMutability": "view",
      "type": "function",
      "constant": true
    },
    {
      "inputs": [],
      "name": "symbol",
      "outputs": [
        {
          "internalType": "string",
          "name": "",
          "type": "string"
        }
      ],
      "stateMutability": "view",
      "type": "function",
      "constant": true
    },
    {
      "inputs": [],
      "name": "totalSupply",
      "outputs": [
        {
          "internalType": "uint256",
          "name": "",
          "type": "uint256"
        }
      ],
      "stateMutability": "view",
      "type": "function",
      "constant": true
    },
    {
      "inputs": [
        {
          "internalType": "address",
          "name": "_owner",
          "type": "address"
        }
      ],
      "name": "balanceOf",
      "outputs": [
        {
          "internalType": "uint256",
          "name": "balance",
          "type": "uint256"
        }
      ],
      "stateMutability": "view",
      "type": "function",
      "constant": true
    },
    {
      "inputs": [
        {
          "internalType": "address",
          "name": "_to",
          "type": "address"
        },
        {
          "internalType": "uint256",
          "name": "_value",
          "type": "uint256"
        }
      ],
      "name": "transfer",
      "outputs": [
        {
          "internalType": "bool",
          "name": "success",
          "type": "bool"
        }
      ],
      "stateMutability": "nonpayable",
      "type": "function"
    }
  ],
  "bytecode": "0x60806040526040518060400160405280600981526020017f68656c70546f6b656e0000000000000000000000000000000000000000000000815250600190816200004a9190620003b4565b506040518060400160405280600381526020017f49544b000000000000000000000000000000000000000000000000000000000081525060029081620000919190620003b4565b506012600360006101000a81548160ff021916908360ff160217905550600360009054906101000a900460ff16600a620000cc91906200062b565b6402540be400620000de91906200067c565b600455348015620000ee57600080fd5b506004546000803373ffffffffffffffffffffffffffffffffffffffff1673ffffffffffffffffffffffffffffffffffffffff16815260200190815260200160002081905550620006dd565b600081519050919050565b7f4e487b7100000000000000000000000000000000000000000000000000000000600052604160045260246000fd5b7f4e487b7100000000000000000000000000000000000000000000000000000000600052602260045260246000fd5b60006002820490506001821680620001bc57607f821691505b602082108103620001d257620001d162000174565b5b50919050565b60008190508160005260206000209050919050565b60006020601f8301049050919050565b600082821b905092915050565b6000600883026200023c7fffffffffffffffffffffffffffffffffffffffffffffffffffffffffffffffff82620001fd565b620002488683620001fd565b95508019841693508086168417925050509392505050565b6000819050919050565b6000819050919050565b6000620002956200028f620002898462000260565b6200026a565b62000260565b9050919050565b6000819050919050565b620002b18362000274565b620002c9620002c0826200029c565b8484546200020a565b825550505050565b600090565b620002e0620002d1565b620002ed818484620002a6565b505050565b5b81811015620003155762000309600082620002d6565b600181019050620002f3565b5050565b601f82111562000364576200032e81620001d8565b6200033984620001ed565b8101602085101562000349578190505b620003616200035885620001ed565b830182620002f2565b50505b505050565b600082821c905092915050565b6000620003896000198460080262000369565b1980831691505092915050565b6000620003a4838362000376565b9150826002028217905092915050565b620003bf826200013a565b67ffffffffffffffff811115620003db57620003da62000145565b5b620003e78254620001a3565b620003f482828562000319565b600060209050601f8311600181146200042c576000841562000417578287015190505b62000423858262000396565b86555062000493565b601f1984166200043c86620001d8565b60005b8281101562000466578489015182556001820191506020850194506020810190506200043f565b8683101562000486578489015162000482601f89168262000376565b8355505b6001600288020188555050505b505050505050565b7f4e487b7100000000000000000000000000000000000000000000000000000000600052601160045260246000fd5b60008160011c9050919050565b6000808291508390505b600185111562000529578086048111156200050157620005006200049b565b5b6001851615620005115780820291505b80810290506200052185620004ca565b9450620004e1565b94509492505050565b60008262000544576001905062000617565b8162000554576000905062000617565b81600181146200056d57600281146200057857620005ae565b600191505062000617565b60ff8411156200058d576200058c6200049b565b5b8360020a915084821115620005a757620005a66200049b565b5b5062000617565b5060208310610133831016604e8410600b8410161715620005e85782820a905083811115620005e257620005e16200049b565b5b62000617565b620005f78484846001620004d7565b925090508184048111156200061157620006106200049b565b5b81810290505b9392505050565b600060ff82169050919050565b6000620006388262000260565b915062000645836200061e565b9250620006747fffffffffffffffffffffffffffffffffffffffffffffffffffffffffffffffff848462000532565b905092915050565b6000620006898262000260565b9150620006968362000260565b9250817fffffffffffffffffffffffffffffffffffffffffffffffffffffffffffffffff0483118215151615620006d257620006d16200049b565b5b828202905092915050565b61084880620006ed6000396000f3fe608060405234801561001057600080fd5b506004361061007d5760003560e01c8063313ce5671161005b578063313ce567146100ee57806370a082311461010c57806395d89b411461013c578063a9059cbb1461015a5761007d565b806306fdde031461008257806318160ddd146100a057806327e235e3146100be575b600080fd5b61008a61018a565b60405161009791906104f4565b60405180910390f35b6100a8610218565b6040516100b5919061052f565b60405180910390f35b6100d860048036038101906100d391906105ad565b61021e565b6040516100e5919061052f565b60405180910390f35b6100f6610236565b60405161010391906105f6565b60405180910390f35b610126600480360381019061012191906105ad565b610249565b604051610133919061052f565b60405180910390f35b610144610291565b60405161015191906104f4565b60405180910390f35b610174600480360381019061016f919061063d565b61031f565b6040516101819190610698565b60405180910390f35b60018054610197906106e2565b80601f01602080910402602001604051908101604052809291908181526020018280546101c3906106e2565b80156102105780601f106101e557610100808354040283529160200191610210565b820191906000526020600020905b8154815290600101906020018083116101f357829003601f168201915b505050505081565b60045481565b60006020528060005260406000206000915090505481565b600360009054906101000a900460ff1681565b60008060008373ffffffffffffffffffffffffffffffffffffffff1673ffffffffffffffffffffffffffffffffffffffff168152602001908152602001600020549050919050565b6002805461029e906106e2565b80601f01602080910402602001604051908101604052809291908181526020018280546102ca906106e2565b80156103175780601f106102ec57610100808354040283529160200191610317565b820191906000526020600020905b8154815290600101906020018083116102fa57829003601f168201915b505050505081565b6000816000803373ffffffffffffffffffffffffffffffffffffffff1673ffffffffffffffffffffffffffffffffffffffff16815260200190815260200160002054101561036c57600080fd5b816000803373ffffffffffffffffffffffffffffffffffffffff1673ffffffffffffffffffffffffffffffffffffffff16815260200190815260200160002060008282546103ba9190610742565b92505081905550816000808573ffffffffffffffffffffffffffffffffffffffff1673ffffffffffffffffffffffffffffffffffffffff168152602001908152602001600020600082825461040f9190610776565b925050819055507fddf252ad1be2c89b69c2b068fc378daa952ba7f163c4a11628f55a4df523b3ef338484604051610449939291906107db565b60405180910390a16001905092915050565b600081519050919050565b600082825260208201905092915050565b60005b8381101561049557808201518184015260208101905061047a565b838111156104a4576000848401525b50505050565b6000601f19601f8301169050919050565b60006104c68261045b565b6104d08185610466565b93506104e0818560208601610477565b6104e9816104aa565b840191505092915050565b6000602082019050818103600083015261050e81846104bb565b905092915050565b6000819050919050565b61052981610516565b82525050565b60006020820190506105446000830184610520565b92915050565b600080fd5b600073ffffffffffffffffffffffffffffffffffffffff82169050919050565b600061057a8261054f565b9050919050565b61058a8161056f565b811461059557600080fd5b50565b6000813590506105a781610581565b92915050565b6000602082840312156105c3576105c261054a565b5b60006105d184828501610598565b91505092915050565b600060ff82169050919050565b6105f0816105da565b82525050565b600060208201905061060b60008301846105e7565b92915050565b61061a81610516565b811461062557600080fd5b50565b60008135905061063781610611565b92915050565b600080604083850312156106545761065361054a565b5b600061066285828601610598565b925050602061067385828601610628565b9150509250929050565b60008115159050919050565b6106928161067d565b82525050565b60006020820190506106ad6000830184610689565b92915050565b7f4e487b7100000000000000000000000000000000000000000000000000000000600052602260045260246000fd5b600060028204905060018216806106fa57607f821691505b60208210810361070d5761070c6106b3565b5b50919050565b7f4e487b7100000000000000000000000000000000000000000000000000000000600052601160045260246000fd5b600061074d82610516565b915061075883610516565b92508282101561076b5761076a610713565b5b828203905092915050565b600061078182610516565b915061078c83610516565b9250827fffffffffffffffffffffffffffffffffffffffffffffffffffffffffffffffff038211156107c1576107c0610713565b5b828201905092915050565b6107d58161056f565b82525050565b60006060820190506107f060008301866107cc565b6107fd60208301856107cc565b61080a6040830184610520565b94935050505056fea264697066735822122094414b4d818868c938058aab4ca21d0d4a82002dc938d2558abdca08274ec06e64736f6c634300080f0033",
  "immutableReferences": {},
  "source": "// SPDX-License-Identifier: MIT\r\npragma solidity ^0.8.15;\r\n\r\n\r\n// \r\ncontract helpToken{\r\n\r\n    mapping(address => uint256)public balances;\r\n\r\n    string public name = \"helpToken\";\r\n    string public symbol = \"ITK\";\r\n    uint8 public decimals = 18;\r\n    uint256 public totalSupply = 10000000000 * 10 ** decimals;// \r\n\r\n    event Transfer(address _from,address _to,uint256 _value);\r\n\r\n    constructor(){\r\n        balances[msg.sender] = totalSupply; //      \r\n    }\r\n    //   balance\r\n    function balanceOf(address _owner)public view returns(uint256 balance){\r\n        return balances[_owner];\r\n    }\r\n    //    transfer\r\n    function transfer(address _to,uint256 _value)public returns(bool success){ //  ,  !\r\n        // require();  ,  true  false \r\n        require(balances[msg.sender] >= _value); //       ..\r\n        balances[msg.sender] -= _value; //   \r\n        balances[_to] += _value; //   .\r\n        emit Transfer(msg.sender, _to, _value); //  () \r\n        return true;\r\n    }\r\n}\r\n\r\n/*\r\n\r\nname()\r\nsymbol()\r\ndecimals()\r\ntotalSupply()\r\nbalances()\r\ntransfer()\r\nbalanceOf()\r\n */",
  "sourcePath": "C:\\Users\\help\\Documents\\workspace\\2022-07-15\\truffle\\contracts\\helpToken.sol",
  "compiler": {
    "name": "solc",
    "version": "0.8.15+commit.e14f2714.Emscripten.clang"
  },
  "schemaVersion": "3.4.4",
  "updatedAt": "2022-07-15T05:09:15.364Z",
  "networkType": "ethereum",
  "devdoc": {
    "kind": "dev",
    "methods": {},
    "version": 1
  },
  "userdoc": {
    "kind": "user",
    "methods": {},
    "version": 1
  }
}